{
  "_format": "hh-sol-artifact-1",
  "contractName": "Dungeons",
  "sourceName": "contracts/dungeons.sol",
  "abi": [
    {
      "inputs": [
        {
          "internalType": "contract CharacterCard",
          "name": "_lootContract",
          "type": "address"
        },
        {
          "internalType": "contract IDungeonsRender",
          "name": "_render",
          "type": "address"
        },
        {
          "internalType": "contract IDungeonsGenerator",
          "name": "_generator",
          "type": "address"
        },
        {
          "internalType": "contract IDungeonsSeeder",
          "name": "_seeder",
          "type": "address"
        }
      ],
      "stateMutability": "nonpayable",
      "type": "constructor"
    },
    {
      "anonymous": false,
      "inputs": [
        {
          "indexed": true,
          "internalType": "address",
          "name": "owner",
          "type": "address"
        },
        {
          "indexed": true,
          "internalType": "address",
          "name": "approved",
          "type": "address"
        },
        {
          "indexed": true,
          "internalType": "uint256",
          "name": "tokenId",
          "type": "uint256"
        }
      ],
      "name": "Approval",
      "type": "event"
    },
    {
      "anonymous": false,
      "inputs": [
        {
          "indexed": true,
          "internalType": "address",
          "name": "owner",
          "type": "address"
        },
        {
          "indexed": true,
          "internalType": "address",
          "name": "operator",
          "type": "address"
        },
        {
          "indexed": false,
          "internalType": "bool",
          "name": "approved",
          "type": "bool"
        }
      ],
      "name": "ApprovalForAll",
      "type": "event"
    },
    {
      "anonymous": false,
      "inputs": [
        {
          "indexed": true,
          "internalType": "address",
          "name": "account",
          "type": "address"
        },
        {
          "indexed": false,
          "internalType": "uint256",
          "name": "tokenId",
          "type": "uint256"
        }
      ],
      "name": "Claimed",
      "type": "event"
    },
    {
      "anonymous": false,
      "inputs": [
        {
          "indexed": true,
          "internalType": "address",
          "name": "account",
          "type": "address"
        },
        {
          "indexed": false,
          "internalType": "uint256",
          "name": "tokenId",
          "type": "uint256"
        }
      ],
      "name": "Minted",
      "type": "event"
    },
    {
      "anonymous": false,
      "inputs": [
        {
          "indexed": true,
          "internalType": "address",
          "name": "previousOwner",
          "type": "address"
        },
        {
          "indexed": true,
          "internalType": "address",
          "name": "newOwner",
          "type": "address"
        }
      ],
      "name": "OwnershipTransferred",
      "type": "event"
    },
    {
      "anonymous": false,
      "inputs": [
        {
          "indexed": true,
          "internalType": "address",
          "name": "from",
          "type": "address"
        },
        {
          "indexed": true,
          "internalType": "address",
          "name": "to",
          "type": "address"
        },
        {
          "indexed": true,
          "internalType": "uint256",
          "name": "tokenId",
          "type": "uint256"
        }
      ],
      "name": "Transfer",
      "type": "event"
    },
    {
      "inputs": [
        {
          "internalType": "address",
          "name": "to",
          "type": "address"
        },
        {
          "internalType": "uint256",
          "name": "tokenId",
          "type": "uint256"
        }
      ],
      "name": "approve",
      "outputs": [],
      "stateMutability": "nonpayable",
      "type": "function"
    },
    {
      "inputs": [
        {
          "internalType": "address",
          "name": "owner",
          "type": "address"
        }
      ],
      "name": "balanceOf",
      "outputs": [
        {
          "internalType": "uint256",
          "name": "",
          "type": "uint256"
        }
      ],
      "stateMutability": "view",
      "type": "function"
    },
    {
      "inputs": [
        {
          "internalType": "uint256",
          "name": "tokenId",
          "type": "uint256"
        }
      ],
      "name": "claim",
      "outputs": [],
      "stateMutability": "payable",
      "type": "function"
    },
    {
      "inputs": [
        {
          "internalType": "uint256[]",
          "name": "tokenArray",
          "type": "uint256[]"
        }
      ],
      "name": "claimMany",
      "outputs": [],
      "stateMutability": "payable",
      "type": "function"
    },
    {
      "inputs": [],
      "name": "claimed",
      "outputs": [
        {
          "internalType": "uint256",
          "name": "",
          "type": "uint256"
        }
      ],
      "stateMutability": "view",
      "type": "function"
    },
    {
      "inputs": [],
      "name": "generator",
      "outputs": [
        {
          "internalType": "contract IDungeonsGenerator",
          "name": "",
          "type": "address"
        }
      ],
      "stateMutability": "view",
      "type": "function"
    },
    {
      "inputs": [
        {
          "internalType": "uint256",
          "name": "tokenId",
          "type": "uint256"
        }
      ],
      "name": "getApproved",
      "outputs": [
        {
          "internalType": "address",
          "name": "",
          "type": "address"
        }
      ],
      "stateMutability": "view",
      "type": "function"
    },
    {
      "inputs": [
        {
          "internalType": "uint256",
          "name": "tokenId",
          "type": "uint256"
        }
      ],
      "name": "getEntities",
      "outputs": [
        {
          "internalType": "uint8[]",
          "name": "",
          "type": "uint8[]"
        },
        {
          "internalType": "uint8[]",
          "name": "",
          "type": "uint8[]"
        },
        {
          "internalType": "uint8[]",
          "name": "",
          "type": "uint8[]"
        }
      ],
      "stateMutability": "view",
      "type": "function"
    },
    {
      "inputs": [
        {
          "internalType": "uint256",
          "name": "tokenId",
          "type": "uint256"
        }
      ],
      "name": "getEnvironment",
      "outputs": [
        {
          "internalType": "uint8",
          "name": "",
          "type": "uint8"
        }
      ],
      "stateMutability": "view",
      "type": "function"
    },
    {
      "inputs": [
        {
          "internalType": "uint256",
          "name": "tokenId",
          "type": "uint256"
        }
      ],
      "name": "getLayout",
      "outputs": [
        {
          "internalType": "bytes",
          "name": "",
          "type": "bytes"
        }
      ],
      "stateMutability": "view",
      "type": "function"
    },
    {
      "inputs": [
        {
          "internalType": "uint256",
          "name": "tokenId",
          "type": "uint256"
        }
      ],
      "name": "getName",
      "outputs": [
        {
          "internalType": "string",
          "name": "",
          "type": "string"
        }
      ],
      "stateMutability": "view",
      "type": "function"
    },
    {
      "inputs": [
        {
          "internalType": "uint256",
          "name": "tokenId",
          "type": "uint256"
        }
      ],
      "name": "getNumDoors",
      "outputs": [
        {
          "internalType": "uint256",
          "name": "",
          "type": "uint256"
        }
      ],
      "stateMutability": "view",
      "type": "function"
    },
    {
      "inputs": [
        {
          "internalType": "uint256",
          "name": "tokenId",
          "type": "uint256"
        }
      ],
      "name": "getNumPoints",
      "outputs": [
        {
          "internalType": "uint256",
          "name": "",
          "type": "uint256"
        }
      ],
      "stateMutability": "view",
      "type": "function"
    },
    {
      "inputs": [
        {
          "internalType": "uint256",
          "name": "tokenId",
          "type": "uint256"
        }
      ],
      "name": "getSize",
      "outputs": [
        {
          "internalType": "uint8",
          "name": "",
          "type": "uint8"
        }
      ],
      "stateMutability": "view",
      "type": "function"
    },
    {
      "inputs": [
        {
          "internalType": "uint256",
          "name": "tokenId",
          "type": "uint256"
        }
      ],
      "name": "getSvg",
      "outputs": [
        {
          "internalType": "string",
          "name": "",
          "type": "string"
        }
      ],
      "stateMutability": "view",
      "type": "function"
    },
    {
      "inputs": [
        {
          "internalType": "address",
          "name": "owner",
          "type": "address"
        },
        {
          "internalType": "address",
          "name": "operator",
          "type": "address"
        }
      ],
      "name": "isApprovedForAll",
      "outputs": [
        {
          "internalType": "bool",
          "name": "",
          "type": "bool"
        }
      ],
      "stateMutability": "view",
      "type": "function"
    },
    {
      "inputs": [],
      "name": "lastMint",
      "outputs": [
        {
          "internalType": "uint256",
          "name": "",
          "type": "uint256"
        }
      ],
      "stateMutability": "view",
      "type": "function"
    },
    {
      "inputs": [],
      "name": "mint",
      "outputs": [],
      "stateMutability": "payable",
      "type": "function"
    },
    {
      "inputs": [],
      "name": "name",
      "outputs": [
        {
          "internalType": "string",
          "name": "",
          "type": "string"
        }
      ],
      "stateMutability": "view",
      "type": "function"
    },
    {
      "inputs": [],
      "name": "openClaim",
      "outputs": [],
      "stateMutability": "nonpayable",
      "type": "function"
    },
    {
      "inputs": [],
      "name": "owner",
      "outputs": [
        {
          "internalType": "address",
          "name": "",
          "type": "address"
        }
      ],
      "stateMutability": "view",
      "type": "function"
    },
    {
      "inputs": [
        {
          "internalType": "uint256",
          "name": "tokenId",
          "type": "uint256"
        }
      ],
      "name": "ownerClaim",
      "outputs": [],
      "stateMutability": "payable",
      "type": "function"
    },
    {
      "inputs": [
        {
          "internalType": "uint256",
          "name": "tokenId",
          "type": "uint256"
        }
      ],
      "name": "ownerOf",
      "outputs": [
        {
          "internalType": "address",
          "name": "",
          "type": "address"
        }
      ],
      "stateMutability": "view",
      "type": "function"
    },
    {
      "inputs": [],
      "name": "price",
      "outputs": [
        {
          "internalType": "uint256",
          "name": "",
          "type": "uint256"
        }
      ],
      "stateMutability": "view",
      "type": "function"
    },
    {
      "inputs": [],
      "name": "render",
      "outputs": [
        {
          "internalType": "contract IDungeonsRender",
          "name": "",
          "type": "address"
        }
      ],
      "stateMutability": "view",
      "type": "function"
    },
    {
      "inputs": [],
      "name": "renounceOwnership",
      "outputs": [],
      "stateMutability": "nonpayable",
      "type": "function"
    },
    {
      "inputs": [],
      "name": "restricted",
      "outputs": [
        {
          "internalType": "bool",
          "name": "",
          "type": "bool"
        }
      ],
      "stateMutability": "view",
      "type": "function"
    },
    {
      "inputs": [
        {
          "internalType": "address",
          "name": "from",
          "type": "address"
        },
        {
          "internalType": "address",
          "name": "to",
          "type": "address"
        },
        {
          "internalType": "uint256",
          "name": "tokenId",
          "type": "uint256"
        }
      ],
      "name": "safeTransferFrom",
      "outputs": [],
      "stateMutability": "nonpayable",
      "type": "function"
    },
    {
      "inputs": [
        {
          "internalType": "address",
          "name": "from",
          "type": "address"
        },
        {
          "internalType": "address",
          "name": "to",
          "type": "address"
        },
        {
          "internalType": "uint256",
          "name": "tokenId",
          "type": "uint256"
        },
        {
          "internalType": "bytes",
          "name": "_data",
          "type": "bytes"
        }
      ],
      "name": "safeTransferFrom",
      "outputs": [],
      "stateMutability": "nonpayable",
      "type": "function"
    },
    {
      "inputs": [],
      "name": "seeder",
      "outputs": [
        {
          "internalType": "contract IDungeonsSeeder",
          "name": "",
          "type": "address"
        }
      ],
      "stateMutability": "view",
      "type": "function"
    },
    {
      "inputs": [
        {
          "internalType": "uint256",
          "name": "",
          "type": "uint256"
        }
      ],
      "name": "seeds",
      "outputs": [
        {
          "internalType": "uint256",
          "name": "",
          "type": "uint256"
        }
      ],
      "stateMutability": "view",
      "type": "function"
    },
    {
      "inputs": [
        {
          "internalType": "address",
          "name": "operator",
          "type": "address"
        },
        {
          "internalType": "bool",
          "name": "approved",
          "type": "bool"
        }
      ],
      "name": "setApprovalForAll",
      "outputs": [],
      "stateMutability": "nonpayable",
      "type": "function"
    },
    {
      "inputs": [
        {
          "internalType": "bytes4",
          "name": "interfaceId",
          "type": "bytes4"
        }
      ],
      "name": "supportsInterface",
      "outputs": [
        {
          "internalType": "bool",
          "name": "",
          "type": "bool"
        }
      ],
      "stateMutability": "view",
      "type": "function"
    },
    {
      "inputs": [],
      "name": "symbol",
      "outputs": [
        {
          "internalType": "string",
          "name": "",
          "type": "string"
        }
      ],
      "stateMutability": "view",
      "type": "function"
    },
    {
      "inputs": [
        {
          "internalType": "uint256",
          "name": "index",
          "type": "uint256"
        }
      ],
      "name": "tokenByIndex",
      "outputs": [
        {
          "internalType": "uint256",
          "name": "",
          "type": "uint256"
        }
      ],
      "stateMutability": "view",
      "type": "function"
    },
    {
      "inputs": [
        {
          "internalType": "address",
          "name": "owner",
          "type": "address"
        },
        {
          "internalType": "uint256",
          "name": "index",
          "type": "uint256"
        }
      ],
      "name": "tokenOfOwnerByIndex",
      "outputs": [
        {
          "internalType": "uint256",
          "name": "",
          "type": "uint256"
        }
      ],
      "stateMutability": "view",
      "type": "function"
    },
    {
      "inputs": [
        {
          "internalType": "uint256",
          "name": "tokenId",
          "type": "uint256"
        }
      ],
      "name": "tokenURI",
      "outputs": [
        {
          "internalType": "string",
          "name": "",
          "type": "string"
        }
      ],
      "stateMutability": "view",
      "type": "function"
    },
    {
      "inputs": [],
      "name": "totalSupply",
      "outputs": [
        {
          "internalType": "uint256",
          "name": "",
          "type": "uint256"
        }
      ],
      "stateMutability": "view",
      "type": "function"
    },
    {
      "inputs": [
        {
          "internalType": "address",
          "name": "from",
          "type": "address"
        },
        {
          "internalType": "address",
          "name": "to",
          "type": "address"
        },
        {
          "internalType": "uint256",
          "name": "tokenId",
          "type": "uint256"
        }
      ],
      "name": "transferFrom",
      "outputs": [],
      "stateMutability": "nonpayable",
      "type": "function"
    },
    {
      "inputs": [
        {
          "internalType": "address",
          "name": "newOwner",
          "type": "address"
        }
      ],
      "name": "transferOwnership",
      "outputs": [],
      "stateMutability": "nonpayable",
      "type": "function"
    },
    {
      "inputs": [
        {
          "internalType": "address payable",
          "name": "recipient",
          "type": "address"
        },
        {
          "internalType": "uint256",
          "name": "amount",
          "type": "uint256"
        }
      ],
      "name": "withdraw",
      "outputs": [],
      "stateMutability": "nonpayable",
      "type": "function"
    }
  ],
  "bytecode": "0x6080604052611f4060115560006012556013805460ff1916600117905566b1a2bc2ec500006014553480156200003457600080fd5b5060405162003f8238038062003f8283398101604081905262000057916200023a565b604080518082018252600a815269434f534d4f204d41505360b01b6020808301918252835180850190945260048452630434f53560e41b908401528151919291620000a59160009162000181565b508051620000bb90600190602084019062000181565b50506001600a5550620000d7620000d16200012b565b6200012f565b601080546001600160a01b039586166001600160a01b031991821617909155600c805494861694821694909417909355600d805492851692841692909217909155600e80549190931691161790556200032b565b3390565b600b80546001600160a01b038381166001600160a01b0319831681179093556040519116919082907f8be0079c531659141344cd1fd0a4f28419497f9722a3daafe3b4186f6b6457e090600090a35050565b8280546200018f90620002ca565b90600052602060002090601f016020900481019282620001b35760008555620001fe565b82601f10620001ce57805160ff1916838001178555620001fe565b82800160010185558215620001fe579182015b82811115620001fe578251825591602001919060010190620001e1565b506200020c92915062000210565b5090565b5b808211156200020c576000815560010162000211565b8051620002348162000311565b92915050565b600080600080608085870312156200025157600080fd5b60006200025f878762000227565b9450506020620002728782880162000227565b9350506040620002858782880162000227565b9250506060620002988782880162000227565b91505092959194509250565b60006200023482620002be565b60006200023482620002a4565b6001600160a01b031690565b600281046001821680620002df57607f821691505b60208210811415620002f557620002f5620002fb565b50919050565b634e487b7160e01b600052602260045260246000fd5b6200031c81620002b1565b81146200032857600080fd5b50565b613c47806200033b6000396000f3fe6080604052600436106102465760003560e01c80636db4080011610139578063b0dc78fa116100b6578063db9ee4451161007a578063db9ee44514610650578063e834a83414610670578063e985e9c514610685578063f0503e80146106a5578063f2fde38b146106c5578063f3fef3a3146106e557610246565b8063b0dc78fa146105ac578063b88d4fde146105cc578063c87b56dd146105ec578063cc6dd9471461060c578063d607497a1461063b57610246565b80638da5cb5b116100fd5780638da5cb5b1461053a578063925489a81461054f57806395d89b4114610562578063a035b1fe14610577578063a22cb4651461058c57610246565b80636db40800146104bb5780637072c6b1146104db57806370a08231146104f0578063715018a6146105105780637afa1eed1461052557610246565b80632f745c59116101c75780634f6ccce71161018b5780634f6ccce714610424578063586fc5b5146104445780636352211e14610459578063684931ed146104795780636b8ff5741461049b57610246565b80632f745c591461039e578063379607f5146103be5780633bb31416146103d157806342842e0e146103f1578063434f48c41461041157610246565b8063095ea7b31161020e578063095ea7b31461031d5780631249c58b1461033f57806318160ddd1461034757806323b872dd14610369578063293cdbf11461038957610246565b8063012921351461024b57806301ffc9a714610281578063023c23db146102ae57806306fdde03146102db578063081812fc146102f0575b600080fd5b34801561025757600080fd5b5061026b610266366004612cca565b610705565b6040516102789190613725565b60405180910390f35b34801561028d57600080fd5b506102a161029c366004612b5e565b6107b6565b6040516102789190613717565b3480156102ba57600080fd5b506102ce6102c9366004612cca565b6107e1565b604051610278919061398e565b3480156102e757600080fd5b5061026b61087a565b3480156102fc57600080fd5b5061031061030b366004612cca565b61090c565b604051610278919061367b565b34801561032957600080fd5b5061033d610338366004612944565b610958565b005b61033d6109f0565b34801561035357600080fd5b5061035c610b64565b6040516102789190613931565b34801561037557600080fd5b5061033d6103843660046129ae565b610b6a565b34801561039557600080fd5b5061033d610ba2565b3480156103aa57600080fd5b5061035c6103b9366004612944565b610c22565b61033d6103cc366004612cca565b610c74565b3480156103dd57600080fd5b5061035c6103ec366004612cca565b610e8d565b3480156103fd57600080fd5b5061033d61040c3660046129ae565b610f3e565b61033d61041f366004612cca565b610f59565b34801561043057600080fd5b5061035c61043f366004612cca565b611088565b34801561045057600080fd5b5061035c6110e3565b34801561046557600080fd5b50610310610474366004612cca565b6110e9565b34801561048557600080fd5b5061048e61111e565b6040516102789190613736565b3480156104a757600080fd5b5061026b6104b6366004612cca565b61112d565b3480156104c757600080fd5b506102ce6104d6366004612cca565b6111d3565b3480156104e757600080fd5b506102a161121b565b3480156104fc57600080fd5b5061035c61050b366004612908565b611224565b34801561051c57600080fd5b5061033d611268565b34801561053157600080fd5b5061048e6112b3565b34801561054657600080fd5b506103106112c2565b61033d61055d366004612aa3565b6112d1565b34801561056e57600080fd5b5061026b61164d565b34801561058357600080fd5b5061035c61165c565b34801561059857600080fd5b5061033d6105a7366004612a73565b611662565b3480156105b857600080fd5b5061026b6105c7366004612cca565b611678565b3480156105d857600080fd5b5061033d6105e73660046129fb565b611725565b3480156105f857600080fd5b5061026b610607366004612cca565b611764565b34801561061857600080fd5b5061062c610627366004612cca565b611908565b604051610278939291906136de565b34801561064757600080fd5b5061048e6119c8565b34801561065c57600080fd5b5061035c61066b366004612cca565b6119d7565b34801561067c57600080fd5b5061035c611a0f565b34801561069157600080fd5b506102a16106a036600461297e565b611a15565b3480156106b157600080fd5b5061035c6106c0366004612cca565b611a43565b3480156106d157600080fd5b5061033d6106e0366004612908565b611a55565b3480156106f157600080fd5b5061033d610700366004612944565b611ac6565b606061071082611bd3565b600d546000838152600f602052604081205490916001600160a01b03169063ff8f8c189061073d866107e1565b6040518363ffffffff1660e01b815260040161075a929190613973565b60006040518083038186803b15801561077257600080fd5b505afa158015610786573d6000803e3d6000fd5b505050506040513d6000823e601f3d908101601f191682016040526107ae9190810190612be0565b509392505050565b60006001600160e01b0319821663780e9d6360e01b14806107db57506107db82611c25565b92915050565b60006107ec82611bd3565b600e546000838152600f60205260409081902054905163023c23db60e01b81526001600160a01b039092169163023c23db9161082a91600401613931565b60206040518083038186803b15801561084257600080fd5b505afa158015610856573d6000803e3d6000fd5b505050506040513d601f19601f820116820180604052508101906107db9190612d25565b60606000805461088990613b3a565b80601f01602080910402602001604051908101604052809291908181526020018280546108b590613b3a565b80156109025780601f106108d757610100808354040283529160200191610902565b820191906000526020600020905b8154815290600101906020018083116108e557829003601f168201915b5050505050905090565b600061091782611c65565b61093c5760405162461bcd60e51b815260040161093390613844565b60405180910390fd5b506000908152600460205260409020546001600160a01b031690565b6000610963826110e9565b9050806001600160a01b0316836001600160a01b031614156109975760405162461bcd60e51b815260040161093390613884565b806001600160a01b03166109a9611c82565b6001600160a01b031614806109c557506109c5816106a0611c82565b6109e15760405162461bcd60e51b8152600401610933906137f4565b6109eb8383611c86565b505050565b6002600a541415610a135760405162461bcd60e51b8152600401610933906138c4565b6002600a5560115461232811610a3b5760405162461bcd60e51b815260040161093390613894565b601454341015610a5d5760405162461bcd60e51b815260040161093390613744565b6000601160008154610a6e90613b67565b9182905550600e5460405163e0d4ea3760e01b81529192506001600160a01b03169063e0d4ea3790610aa4908490600401613931565b60206040518083038186803b158015610abc57600080fd5b505afa158015610ad0573d6000803e3d6000fd5b505050506040513d601f19601f82011682018060405250810190610af49190612ce8565b6000828152600f6020526040902055610b14610b0e611c82565b82611cf4565b610b1c611c82565b6001600160a01b03167f30385c845b448a36257a6a1716e6ad2e1bc2cbe333cde1e69fe849ad6511adfe82604051610b549190613931565b60405180910390a2506001600a55565b60085490565b610b7b610b75611c82565b82611d0e565b610b975760405162461bcd60e51b8152600401610933906138a4565b6109eb838383611d8b565b6002600a541415610bc55760405162461bcd60e51b8152600401610933906138c4565b6002600a55610bd2611c82565b6001600160a01b0316610be36112c2565b6001600160a01b031614610c095760405162461bcd60e51b815260040161093390613854565b6013805460ff19811660ff909116151790556001600a55565b6000610c2d83611224565b8210610c4b5760405162461bcd60e51b815260040161093390613754565b506001600160a01b03919091166000908152600660209081526040808320938352929052205490565b6002600a541415610c975760405162461bcd60e51b8152600401610933906138c4565b6002600a558015801590610cac5750611e6281105b610cc85760405162461bcd60e51b815260040161093390613864565b60135460ff161580610d6057506010546040516331a9108f60e11b815233916001600160a01b031690636352211e90610d05908590600401613931565b60206040518083038186803b158015610d1d57600080fd5b505afa158015610d31573d6000803e3d6000fd5b505050506040513d601f19601f82011682018060405250810190610d559190612926565b6001600160a01b0316145b610d7c5760405162461bcd60e51b8152600401610933906138d4565b346014541115610d9e5760405162461bcd60e51b815260040161093390613744565b60128054906000610dae83613b67565b9091555050600e5460405163e0d4ea3760e01b81526001600160a01b039091169063e0d4ea3790610de3908490600401613931565b60206040518083038186803b158015610dfb57600080fd5b505afa158015610e0f573d6000803e3d6000fd5b505050506040513d601f19601f82011682018060405250810190610e339190612ce8565b6000828152600f6020526040902055610e4d610b0e611c82565b610e55611c82565b6001600160a01b03167fd8138f8a3f377c5259ca548e70e4c2de94f129f5a11036a15b69513cba2b426a82604051610b549190613931565b6000610e9882611bd3565b600d546000838152600f602052604081205490916001600160a01b031690634d4c71a390610ec5866107e1565b6040518363ffffffff1660e01b8152600401610ee2929190613973565b60006040518083038186803b158015610efa57600080fd5b505afa158015610f0e573d6000803e3d6000fd5b505050506040513d6000823e601f3d908101601f19168201604052610f369190810190612b9a565b949350505050565b6109eb83838360405180602001604052806000815250611725565b6002600a541415610f7c5760405162461bcd60e51b8152600401610933906138c4565b6002600a55610f89611c82565b6001600160a01b0316610f9a6112c2565b6001600160a01b031614610fc05760405162461bcd60e51b815260040161093390613854565b611e6181118015610fd25750611f4181105b610fee5760405162461bcd60e51b815260040161093390613864565b600e5460405163e0d4ea3760e01b81526001600160a01b039091169063e0d4ea379061101e908490600401613931565b60206040518083038186803b15801561103657600080fd5b505afa15801561104a573d6000803e3d6000fd5b505050506040513d601f19601f8201168201806040525081019061106e9190612ce8565b6000828152600f6020526040902055610e4d610b0e6112c2565b6000611092610b64565b82106110b05760405162461bcd60e51b8152600401610933906138b4565b600882815481106110d157634e487b7160e01b600052603260045260246000fd5b90600052602060002001549050919050565b60115481565b6000818152600260205260408120546001600160a01b0316806107db5760405162461bcd60e51b815260040161093390613814565b600e546001600160a01b031681565b606061113882611bd3565b600e546000838152600f6020526040808220549051631ae3fd5d60e21b815291926001600160a01b031691636b8ff5749161117591600401613931565b60006040518083038186803b15801561118d57600080fd5b505afa1580156111a1573d6000803e3d6000fd5b505050506040513d6000823e601f3d908101601f191682016040526111c99190810190612c5a565b5090949350505050565b60006111de82611bd3565b600e546000838152600f602052604090819020549051620db68160eb1b81526001600160a01b0390921691636db408009161082a91600401613931565b60135460ff1681565b60006001600160a01b03821661124c5760405162461bcd60e51b815260040161093390613804565b506001600160a01b031660009081526003602052604090205490565b611270611c82565b6001600160a01b03166112816112c2565b6001600160a01b0316146112a75760405162461bcd60e51b815260040161093390613854565b6112b16000611eb8565b565b600d546001600160a01b031681565b600b546001600160a01b031690565b6002600a5414156112f45760405162461bcd60e51b8152600401610933906138c4565b6002600a5560005b815181101561164457600082828151811061132757634e487b7160e01b600052603260045260246000fd5b60200260200101511180156113645750611e6282828151811061135a57634e487b7160e01b600052603260045260246000fd5b6020026020010151105b6113805760405162461bcd60e51b815260040161093390613864565b60135460ff1615806114435750601054825133916001600160a01b031690636352211e908590859081106113c457634e487b7160e01b600052603260045260246000fd5b60200260200101516040518263ffffffff1660e01b81526004016113e89190613931565b60206040518083038186803b15801561140057600080fd5b505afa158015611414573d6000803e3d6000fd5b505050506040513d601f19601f820116820180604052508101906114389190612926565b6001600160a01b0316145b61145f5760405162461bcd60e51b815260040161093390613824565b34825160145461146f9190613a58565b111561148d5760405162461bcd60e51b815260040161093390613744565b6012805490600061149d83613b67565b9091555050600e5482516001600160a01b039091169063e0d4ea37908490849081106114d957634e487b7160e01b600052603260045260246000fd5b60200260200101516040518263ffffffff1660e01b81526004016114fd9190613931565b60206040518083038186803b15801561151557600080fd5b505afa158015611529573d6000803e3d6000fd5b505050506040513d601f19601f8201168201806040525081019061154d9190612ce8565b600f600084848151811061157157634e487b7160e01b600052603260045260246000fd5b60200260200101518152602001908152602001600020819055506115c3611596611c82565b8383815181106115b657634e487b7160e01b600052603260045260246000fd5b6020026020010151611cf4565b6115cb611c82565b6001600160a01b03167fd8138f8a3f377c5259ca548e70e4c2de94f129f5a11036a15b69513cba2b426a83838151811061161557634e487b7160e01b600052603260045260246000fd5b602002602001015160405161162a9190613931565b60405180910390a28061163c81613b67565b9150506112fc565b50506001600a55565b60606001805461088990613b3a565b60145481565b61167461166d611c82565b8383611f0a565b5050565b6060600061168583611fad565b600c5460a08201518051602082015160409283015192516329010f4360e01b81529495506001600160a01b03909316936329010f43936116ca938793926004016138e4565b60006040518083038186803b1580156116e257600080fd5b505afa1580156116f6573d6000803e3d6000fd5b505050506040513d6000823e601f3d908101601f1916820160405261171e9190810190612c26565b9392505050565b611736611730611c82565b83611d0e565b6117525760405162461bcd60e51b8152600401610933906138a4565b61175e8484848461218b565b50505050565b606061176f82611bd3565b600061177a83611fad565b604080516002808252606082018352929350600092909160208301908036833701905050600d5460a084015160409081015190516397155f4f60e01b81529293506001600160a01b03909116916397155f4f916117d9916004016136cd565b604080518083038186803b1580156117f057600080fd5b505afa158015611804573d6000803e3d6000fd5b505050506040513d601f19601f820116820180604052508101906118289190612d06565b8260008151811061184957634e487b7160e01b600052603260045260246000fd5b602002602001018360018151811061187157634e487b7160e01b600052603260045260246000fd5b602090810291909101019190915252600c546040516319db2b2f60e01b81526001600160a01b03909116906319db2b2f906118b49087908690869060040161393f565b60006040518083038186803b1580156118cc57600080fd5b505afa1580156118e0573d6000803e3d6000fd5b505050506040513d6000823e601f3d908101601f19168201604052610f369190810190612c26565b606080606061191684611bd3565b600d546000858152600f60205260408120549091829182916001600160a01b0316906340070627906119478a6107e1565b6040518363ffffffff1660e01b8152600401611964929190613973565b60006040518083038186803b15801561197c57600080fd5b505afa158015611990573d6000803e3d6000fd5b505050506040513d6000823e601f3d908101601f191682016040526119b89190810190612ad7565b9199909850909650945050505050565b600c546001600160a01b031681565b60006119e282611bd3565b600d546000838152600f602052604081205490916001600160a01b03169063cd7acca690610ec5866107e1565b60125481565b6001600160a01b03918216600090815260056020908152604080832093909416825291909152205460ff1690565b600f6020526000908152604090205481565b611a5d611c82565b6001600160a01b0316611a6e6112c2565b6001600160a01b031614611a945760405162461bcd60e51b815260040161093390613854565b6001600160a01b038116611aba5760405162461bcd60e51b815260040161093390613784565b611ac381611eb8565b50565b6002600a541415611ae95760405162461bcd60e51b8152600401610933906138c4565b6002600a55611af6611c82565b6001600160a01b0316611b076112c2565b6001600160a01b031614611b2d5760405162461bcd60e51b815260040161093390613854565b80471015611b4d5760405162461bcd60e51b8152600401610933906137d4565b6000826001600160a01b031682604051611b6690613670565b60006040518083038185875af1925050503d8060008114611ba3576040519150601f19603f3d011682016040523d82523d6000602084013e611ba8565b606091505b5050905080611bc95760405162461bcd60e51b8152600401610933906137a4565b50506001600a5550565b600081118015611be4575061232981105b611c005760405162461bcd60e51b815260040161093390613864565b611c0981611c65565b611ac35760405162461bcd60e51b815260040161093390613774565b60006001600160e01b031982166380ac58cd60e01b1480611c5657506001600160e01b03198216635b5e139f60e01b145b806107db57506107db826121be565b6000908152600260205260409020546001600160a01b0316151590565b3390565b600081815260046020526040902080546001600160a01b0319166001600160a01b0384169081179091558190611cbb826110e9565b6001600160a01b03167f8c5be1e5ebec7d5bd14f71427d1e84f3dd0314c0f7b2291e5b200ac8c7c3b92560405160405180910390a45050565b6116748282604051806020016040528060008152506121d7565b6000611d1982611c65565b611d355760405162461bcd60e51b8152600401610933906137e4565b6000611d40836110e9565b9050806001600160a01b0316846001600160a01b03161480611d7b5750836001600160a01b0316611d708461090c565b6001600160a01b0316145b80610f365750610f368185611a15565b826001600160a01b0316611d9e826110e9565b6001600160a01b031614611dc45760405162461bcd60e51b815260040161093390613874565b6001600160a01b038216611dea5760405162461bcd60e51b8152600401610933906137b4565b611df583838361220a565b611e00600082611c86565b6001600160a01b0383166000908152600360205260408120805460019290611e29908490613a8d565b90915550506001600160a01b0382166000908152600360205260408120805460019290611e57908490613a2a565b909155505060008181526002602052604080822080546001600160a01b0319166001600160a01b0386811691821790925591518493918716917fddf252ad1be2c89b69c2b068fc378daa952ba7f163c4a11628f55a4df523b3ef91a4505050565b600b80546001600160a01b038381166001600160a01b0319831681179093556040519116919082907f8be0079c531659141344cd1fd0a4f28419497f9722a3daafe3b4186f6b6457e090600090a35050565b816001600160a01b0316836001600160a01b03161415611f3c5760405162461bcd60e51b8152600401610933906137c4565b6001600160a01b0383811660008181526005602090815260408083209487168084529490915290819020805460ff1916851515179055517f17307eab39ab6107e8899845ad3d59bd9653f200f220920489ca2b5937696c3190611fa0908590613717565b60405180910390a3505050565b611fb5612691565b6000806000611fc385611908565b600d546000898152600f6020526040812054949750929550909350909182916001600160a01b03169063ff8f8c1890611ffb8a6107e1565b6040518363ffffffff1660e01b8152600401612018929190613973565b60006040518083038186803b15801561203057600080fd5b505afa158015612044573d6000803e3d6000fd5b505050506040513d6000823e601f3d908101601f1916820160405261206c9190810190612be0565b600e5460008a8152600f6020526040808220549051631ae3fd5d60e21b815294965092945092839283926001600160a01b031691636b8ff574916120b291600401613931565b60006040518083038186803b1580156120ca57600080fd5b505afa1580156120de573d6000803e3d6000fd5b505050506040513d6000823e601f3d908101601f191682016040526121069190810190612c5a565b9250925092506040518061010001604052806121218c6107e1565b60ff1681526020016121328c6111d3565b60ff1681526020018560ff1681526020018260ff16815260200186815260200160405180606001604052808b81526020018a81526020018981525081526020018381526020018481525098505050505050505050919050565b612196848484611d8b565b6121a284848484612293565b61175e5760405162461bcd60e51b815260040161093390613764565b6001600160e01b031981166301ffc9a760e01b14919050565b6121e183836123ae565b6121ee6000848484612293565b6109eb5760405162461bcd60e51b815260040161093390613764565b6122158383836109eb565b6001600160a01b0383166122315761222c8161248d565b612254565b816001600160a01b0316836001600160a01b0316146122545761225483826124d1565b6001600160a01b0382166122705761226b8161256e565b6109eb565b826001600160a01b0316826001600160a01b0316146109eb576109eb8282612647565b60006122a7846001600160a01b031661268b565b156123a357836001600160a01b031663150b7a026122c3611c82565b8786866040518563ffffffff1660e01b81526004016122e59493929190613689565b602060405180830381600087803b1580156122ff57600080fd5b505af192505050801561232f575060408051601f3d908101601f1916820190925261232c91810190612b7c565b60015b612389573d80801561235d576040519150601f19603f3d011682016040523d82523d6000602084013e612362565b606091505b5080516123815760405162461bcd60e51b815260040161093390613764565b805181602001fd5b6001600160e01b031916630a85bd0160e11b149050610f36565b506001949350505050565b6001600160a01b0382166123d45760405162461bcd60e51b815260040161093390613834565b6123dd81611c65565b156123fa5760405162461bcd60e51b815260040161093390613794565b6124066000838361220a565b6001600160a01b038216600090815260036020526040812080546001929061242f908490613a2a565b909155505060008181526002602052604080822080546001600160a01b0319166001600160a01b03861690811790915590518392907fddf252ad1be2c89b69c2b068fc378daa952ba7f163c4a11628f55a4df523b3ef908290a45050565b600880546000838152600960205260408120829055600182018355919091527ff3f7a9fe364faab93b216da50a3214154f22a0a2b415b23a84c8169e8b636ee30155565b600060016124de84611224565b6124e89190613a8d565b60008381526007602052604090205490915080821461253b576001600160a01b03841660009081526006602090815260408083208584528252808320548484528184208190558352600790915290208190555b5060009182526007602090815260408084208490556001600160a01b039094168352600681528383209183525290812055565b60085460009061258090600190613a8d565b600083815260096020526040812054600880549394509092849081106125b657634e487b7160e01b600052603260045260246000fd5b9060005260206000200154905080600883815481106125e557634e487b7160e01b600052603260045260246000fd5b600091825260208083209091019290925582815260099091526040808220849055858252812055600880548061262b57634e487b7160e01b600052603160045260246000fd5b6001900381819060005260206000200160009055905550505050565b600061265283611224565b6001600160a01b039093166000908152600660209081526040808320868452825280832085905593825260079052919091209190915550565b3b151590565b604051806101000160405280600060ff168152602001600060ff168152602001600060ff168152602001600060ff168152602001606081526020016126d46126e8565b815260200160608152602001606081525090565b60405180606001604052806060815260200160608152602001606081525090565b600061271c612717846139c5565b61399c565b9050808382526020820190508285602086028201111561273b57600080fd5b60005b85811015612767578161275188826128e7565b845250602092830192919091019060010161273e565b5050509392505050565b600061277f612717846139c5565b9050808382526020820190508285602086028201111561279e57600080fd5b60005b8581101561276757816127b488826128fd565b84525060209283019291909101906001016127a1565b60006127d8612717846139e8565b9050828152602081018484840111156127f057600080fd5b6107ae848285613b02565b6000612809612717846139e8565b90508281526020810184848401111561282157600080fd5b6107ae848285613b0e565b80356107db81613bd9565b80516107db81613bd9565b600082601f83011261285357600080fd5b8135610f36848260208601612709565b600082601f83011261287457600080fd5b8151610f36848260208601612771565b80356107db81613bed565b80356107db81613bf6565b80516107db81613bf6565b600082601f8301126128b657600080fd5b8135610f368482602086016127ca565b600082601f8301126128d757600080fd5b8151610f368482602086016127fb565b80356107db81613bff565b80516107db81613bff565b80516107db81613c08565b60006020828403121561291a57600080fd5b6000610f36848461282c565b60006020828403121561293857600080fd5b6000610f368484612837565b6000806040838503121561295757600080fd5b6000612963858561282c565b9250506020612974858286016128e7565b9150509250929050565b6000806040838503121561299157600080fd5b600061299d858561282c565b92505060206129748582860161282c565b6000806000606084860312156129c357600080fd5b60006129cf868661282c565b93505060206129e08682870161282c565b92505060406129f1868287016128e7565b9150509250925092565b60008060008060808587031215612a1157600080fd5b6000612a1d878761282c565b9450506020612a2e8782880161282c565b9350506040612a3f878288016128e7565b92505060608501356001600160401b03811115612a5b57600080fd5b612a67878288016128a5565b91505092959194509250565b60008060408385031215612a8657600080fd5b6000612a92858561282c565b925050602061297485828601612884565b600060208284031215612ab557600080fd5b81356001600160401b03811115612acb57600080fd5b610f3684828501612842565b600080600060608486031215612aec57600080fd5b83516001600160401b03811115612b0257600080fd5b612b0e86828701612863565b93505060208401516001600160401b03811115612b2a57600080fd5b612b3686828701612863565b92505060408401516001600160401b03811115612b5257600080fd5b6129f186828701612863565b600060208284031215612b7057600080fd5b6000610f36848461288f565b600060208284031215612b8e57600080fd5b6000610f36848461289a565b60008060408385031215612bad57600080fd5b82516001600160401b03811115612bc357600080fd5b612bcf858286016128c6565b9250506020612974858286016128f2565b60008060408385031215612bf357600080fd5b82516001600160401b03811115612c0957600080fd5b612c15858286016128c6565b9250506020612974858286016128fd565b600060208284031215612c3857600080fd5b81516001600160401b03811115612c4e57600080fd5b610f36848285016128c6565b600080600060608486031215612c6f57600080fd5b83516001600160401b03811115612c8557600080fd5b612c91868287016128c6565b93505060208401516001600160401b03811115612cad57600080fd5b612cb9868287016128c6565b92505060406129f1868287016128fd565b600060208284031215612cdc57600080fd5b6000610f3684846128e7565b600060208284031215612cfa57600080fd5b6000610f3684846128f2565b60008060408385031215612d1957600080fd5b6000612bcf85856128f2565b600060208284031215612d3757600080fd5b6000610f3684846128fd565b6000612d4f8383613655565b505060200190565b6000612d4f8383613667565b612d6c81613aba565b82525050565b6000612d7d82613a18565b612d878185613a1c565b9350612d9283613a12565b8060005b83811015612dc0578151612daa8882612d43565b9750612db583613a12565b925050600101612d96565b509495945050505050565b6000612dd682613a18565b612de08185613a1c565b9350612deb83613a12565b8060005b83811015612dc0578151612e038882612d57565b9750612e0e83613a12565b925050600101612def565b6000612e2482613a18565b612e2e8185613a1c565b9350612e3983613a12565b8060005b83811015612dc0578151612e518882612d57565b9750612e5c83613a12565b925050600101612e3d565b612d6c81613ac5565b6000612e7b82613a18565b612e858185613a1c565b9350612e95818560208601613b0e565b612e9e81613bcf565b9093019392505050565b612d6c81613aec565b6000612ebe601083613a1c565b6f092dce6eaccccd2c6d2cadce8408aa8960831b815260200192915050565b6000612eea602b83613a1c565b7f455243373231456e756d657261626c653a206f776e657220696e646578206f7581526a74206f6620626f756e647360a81b602082015260400192915050565b6000612f37603283613a1c565b7f4552433732313a207472616e7366657220746f206e6f6e20455243373231526581527131b2b4bb32b91034b6b83632b6b2b73a32b960711b602082015260400192915050565b6000612f8b601783613a1c565b7f546f6b656e206973206e6f74206d696e74656420796574000000000000000000815260200192915050565b6000612fc4602683613a1c565b7f4f776e61626c653a206e6577206f776e657220697320746865207a65726f206181526564647265737360d01b602082015260400192915050565b600061300c601c83613a1c565b7f4552433732313a20746f6b656e20616c7265616479206d696e74656400000000815260200192915050565b6000613045600f83613a1c565b6e15da5d1a191c985dc819985a5b1959608a1b815260200192915050565b6000613070602483613a1c565b7f4552433732313a207472616e7366657220746f20746865207a65726f206164648152637265737360e01b602082015260400192915050565b60006130b6601983613a1c565b7f4552433732313a20617070726f766520746f2063616c6c657200000000000000815260200192915050565b60006130ef601483613a1c565b73496e73756666696369656e742062616c616e636560601b815260200192915050565b600061311f602c83613a1c565b7f4552433732313a206f70657261746f7220717565727920666f72206e6f6e657881526b34b9ba32b73a103a37b5b2b760a11b602082015260400192915050565b600061316d603883613a1c565b7f4552433732313a20617070726f76652063616c6c6572206973206e6f74206f7781527f6e6572206e6f7220617070726f76656420666f7220616c6c0000000000000000602082015260400192915050565b60006131cc602a83613a1c565b7f4552433732313a2062616c616e636520717565727920666f7220746865207a65815269726f206164647265737360b01b602082015260400192915050565b6000613218602983613a1c565b7f4552433732313a206f776e657220717565727920666f72206e6f6e657869737481526832b73a103a37b5b2b760b91b602082015260400192915050565b6000613263601783613a1c565b7f4e6f7420796f7572204368617261637465722043617264000000000000000000815260200192915050565b600061329c602083613a1c565b7f4552433732313a206d696e7420746f20746865207a65726f2061646472657373815260200192915050565b60006132d5602c83613a1c565b7f4552433732313a20617070726f76656420717565727920666f72206e6f6e657881526b34b9ba32b73a103a37b5b2b760a11b602082015260400192915050565b6000613323602083613a1c565b7f4f776e61626c653a2063616c6c6572206973206e6f7420746865206f776e6572815260200192915050565b600061335c601083613a1c565b6f151bdad95b881251081a5b9d985b1a5960821b815260200192915050565b6000613388602983613a1c565b7f4552433732313a207472616e73666572206f6620746f6b656e2074686174206981526839903737ba1037bbb760b91b602082015260400192915050565b60006133d3602183613a1c565b7f4552433732313a20617070726f76616c20746f2063757272656e74206f776e658152603960f91b602082015260400192915050565b60006107db600083613a25565b6000613423600e83613a1c565b6d151bdad95b881cdbdb19081bdd5d60921b815260200192915050565b600061344d603183613a1c565b7f4552433732313a207472616e736665722063616c6c6572206973206e6f74206f8152701ddb995c881b9bdc88185c1c1c9bdd9959607a1b602082015260400192915050565b60006134a0602c83613a1c565b7f455243373231456e756d657261626c653a20676c6f62616c20696e646578206f81526b7574206f6620626f756e647360a01b602082015260400192915050565b60006134ee601f83613a1c565b7f5265656e7472616e637947756172643a207265656e7472616e742063616c6c00815260200192915050565b6000613527601683613a1c565b75139bdd081e5bdd5c8810da185c9858dd195c90d85c9960521b815260200192915050565b80516000906101008401906135618582613667565b5060208301516135746020860182613667565b5060408301516135876040860182613667565b50606083015161359a6060860182613667565b50608083015184820360808601526135b28282612e70565b91505060a083015184820360a08601526135cc8282613609565b91505060c083015184820360c08601526135e68282612e70565b91505060e083015184820360e08601526136008282612e70565b95945050505050565b80516060808452600091908401906136218282612dcb565b9150506020830151848203602086015261363b8282612dcb565b915050604083015184820360408601526136008282612dcb565b612d6c81613ae3565b612d6c81613af7565b612d6c81613ae6565b60006107db82613409565b602081016107db8284612d63565b608081016136978287612d63565b6136a46020830186612d63565b6136b16040830185613655565b81810360608301526136c38184612e70565b9695505050505050565b6020808252810161171e8184612e19565b606080825281016136ef8186612e19565b905081810360208301526137038185612e19565b905081810360408301526136008184612e19565b602081016107db8284612e67565b6020808252810161171e8184612e70565b602081016107db8284612ea8565b602080825281016107db81612eb1565b602080825281016107db81612edd565b602080825281016107db81612f2a565b602080825281016107db81612f7e565b602080825281016107db81612fb7565b602080825281016107db81612fff565b602080825281016107db81613038565b602080825281016107db81613063565b602080825281016107db816130a9565b602080825281016107db816130e2565b602080825281016107db81613112565b602080825281016107db81613160565b602080825281016107db816131bf565b602080825281016107db8161320b565b602080825281016107db81613256565b602080825281016107db8161328f565b602080825281016107db816132c8565b602080825281016107db81613316565b602080825281016107db8161334f565b602080825281016107db8161337b565b602080825281016107db816133c6565b602080825281016107db81613416565b602080825281016107db81613440565b602080825281016107db81613493565b602080825281016107db816134e1565b602080825281016107db8161351a565b608080825281016138f5818761354c565b905081810360208301526139098186612e19565b9050818103604083015261391d8185612e19565b905081810360608301526136c38184612e19565b602081016107db8284613655565b6060810161394d8286613655565b818103602083015261395f818561354c565b905081810360408301526136008184612d72565b604081016139818285613655565b61171e602083018461365e565b602081016107db8284613667565b6040518181016001600160401b03811182821017156139bd576139bd613bb9565b604052919050565b60006001600160401b038211156139de576139de613bb9565b5060209081020190565b60006001600160401b03821115613a0157613a01613bb9565b506020601f91909101601f19160190565b60200190565b5190565b90815260200190565b919050565b6000613a3582613ae3565b9150613a4083613ae3565b92508219821115613a5357613a53613b8d565b500190565b6000613a6382613ae3565b9150613a6e83613ae3565b9250816000190483118215151615613a8857613a88613b8d565b500290565b6000613a9882613ae3565b9150613aa383613ae3565b925082821015613ab557613ab5613b8d565b500390565b60006107db82613ad7565b151590565b6001600160e01b03191690565b6001600160a01b031690565b90565b60ff1690565b60006107db82613aba565b60006107db82613ae6565b82818337506000910152565b60005b83811015613b29578181015183820152602001613b11565b8381111561175e5750506000910152565b600281046001821680613b4e57607f821691505b60208210811415613b6157613b61613ba3565b50919050565b6000613b7282613ae3565b9150600019821415613b8657613b86613b8d565b5060010190565b634e487b7160e01b600052601160045260246000fd5b634e487b7160e01b600052602260045260246000fd5b634e487b7160e01b600052604160045260246000fd5b601f01601f191690565b613be281613aba565b8114611ac357600080fd5b613be281613ac5565b613be281613aca565b613be281613ae3565b613be281613ae656fea26469706673582212205c5b165ebdd2941971b9960aa63df50ef0f828f59f75a921ce3f12f42374097e64736f6c63430008000033",
  "linkReferences": {},
  "deployedLinkReferences": {}
}