{
  "_format": "hh-sol-artifact-1",
  "contractName": "dungeonsRender",
  "sourceName": "contracts/dungeonsRender.sol",
  "abi": [
    {
      "inputs": [
        {
          "components": [
            {
              "internalType": "uint8",
              "name": "size",
              "type": "uint8"
            },
            {
              "internalType": "uint8",
              "name": "environment",
              "type": "uint8"
            },
            {
              "internalType": "uint8",
              "name": "structure",
              "type": "uint8"
            },
            {
              "internalType": "uint8",
              "name": "legendary",
              "type": "uint8"
            },
            {
              "internalType": "bytes",
              "name": "layout",
              "type": "bytes"
            },
            {
              "components": [
                {
                  "internalType": "uint8[]",
                  "name": "x",
                  "type": "uint8[]"
                },
                {
                  "internalType": "uint8[]",
                  "name": "y",
                  "type": "uint8[]"
                },
                {
                  "internalType": "uint8[]",
                  "name": "entityType",
                  "type": "uint8[]"
                }
              ],
              "internalType": "struct IDungeons.EntityData",
              "name": "entities",
              "type": "tuple"
            },
            {
              "internalType": "string",
              "name": "affinity",
              "type": "string"
            },
            {
              "internalType": "string",
              "name": "dungeonName",
              "type": "string"
            }
          ],
          "internalType": "struct IDungeons.Dungeon",
          "name": "dungeon",
          "type": "tuple"
        },
        {
          "internalType": "uint8[]",
          "name": "x",
          "type": "uint8[]"
        },
        {
          "internalType": "uint8[]",
          "name": "y",
          "type": "uint8[]"
        },
        {
          "internalType": "uint8[]",
          "name": "entityData",
          "type": "uint8[]"
        }
      ],
      "name": "draw",
      "outputs": [
        {
          "internalType": "string",
          "name": "",
          "type": "string"
        }
      ],
      "stateMutability": "view",
      "type": "function"
    },
    {
      "inputs": [
        {
          "internalType": "uint256",
          "name": "numerator",
          "type": "uint256"
        },
        {
          "internalType": "uint256",
          "name": "denominator",
          "type": "uint256"
        }
      ],
      "name": "getDivided",
      "outputs": [
        {
          "internalType": "uint256",
          "name": "quotient",
          "type": "uint256"
        },
        {
          "internalType": "uint256",
          "name": "remainder",
          "type": "uint256"
        }
      ],
      "stateMutability": "pure",
      "type": "function"
    },
    {
      "inputs": [
        {
          "internalType": "bytes",
          "name": "data",
          "type": "bytes"
        }
      ],
      "name": "getNumIntsRequired",
      "outputs": [
        {
          "internalType": "uint256",
          "name": "",
          "type": "uint256"
        }
      ],
      "stateMutability": "pure",
      "type": "function"
    },
    {
      "inputs": [
        {
          "internalType": "uint256",
          "name": "tokenId",
          "type": "uint256"
        },
        {
          "components": [
            {
              "internalType": "uint8",
              "name": "size",
              "type": "uint8"
            },
            {
              "internalType": "uint8",
              "name": "environment",
              "type": "uint8"
            },
            {
              "internalType": "uint8",
              "name": "structure",
              "type": "uint8"
            },
            {
              "internalType": "uint8",
              "name": "legendary",
              "type": "uint8"
            },
            {
              "internalType": "bytes",
              "name": "layout",
              "type": "bytes"
            },
            {
              "components": [
                {
                  "internalType": "uint8[]",
                  "name": "x",
                  "type": "uint8[]"
                },
                {
                  "internalType": "uint8[]",
                  "name": "y",
                  "type": "uint8[]"
                },
                {
                  "internalType": "uint8[]",
                  "name": "entityType",
                  "type": "uint8[]"
                }
              ],
              "internalType": "struct IDungeons.EntityData",
              "name": "entities",
              "type": "tuple"
            },
            {
              "internalType": "string",
              "name": "affinity",
              "type": "string"
            },
            {
              "internalType": "string",
              "name": "dungeonName",
              "type": "string"
            }
          ],
          "internalType": "struct IDungeons.Dungeon",
          "name": "dungeon",
          "type": "tuple"
        },
        {
          "internalType": "uint256[]",
          "name": "entities",
          "type": "uint256[]"
        }
      ],
      "name": "tokenURI",
      "outputs": [
        {
          "internalType": "string",
          "name": "",
          "type": "string"
        }
      ],
      "stateMutability": "view",
      "type": "function"
    }
  ],
  "bytecode": "0x6006610380818152652318a318a31960d11b6103a05260809081526103c0828152652098a21b229960d11b6103e05260a0526104008281526542434241424560d01b6104205260c052610440828152650c4e4e4d505160d21b6104605260e0526104808281526503235364330360d41b6104a052610100526104c08281526536384132323560d01b6104e052610120526105008281526542334445383160d01b61052052610140526105408281526523222323232360d11b61056052610160526105808281526533323438353160d01b6105a052610180526105c08281526538364143343160d01b6105e0526101a0526106008281526533343637354360d01b610620526101c0526106408281526537444133413160d01b610660526101e05261068082815265232121a21a2160d11b6106a052610200526106c08281526541334135393960d01b6106e052610220526107008281526532383236323360d01b61072052610240526107408281526503838413535360d41b61076052610260526107808281526530303444343760d01b6107a052610280526107c08281526531323832373760d01b6107e0526102a052610800828152651a991c9a9c2160d11b610820526102c0526108408281526542394334433960d01b610860526102e0526108808281526530303042323960d01b6108a052610300526108c082815265221b9818191b60d11b6108e0526103205261090082815265231c231aa31960d11b61092052610340526109806040526109409182526543314531444360d01b6109605261036091909152620002589060009060186200038b565b506040518060c001604052806040518060400160405280600981526020016848696d616c6179617360b81b81525081526020016040518060400160405280600a81526020016953756e64617262616e7360b01b8152508152602001604051806040016040528060068152602001652232b1b1b0b760d11b81525081526020016040518060400160405280600c81526020016b54686172204465736572747360a01b81525081526020016040518060400160405280600c81526020016b24b73234b0b71027b1b2b0b760a11b81525081526020016040518060400160405280601381526020017f496e6469616e204d6574726f706f6c6974616e00000000000000000000000000815250815250601890600662000376929190620003e2565b503480156200038457600080fd5b5062000576565b8260188101928215620003d0579160200282015b82811115620003d05782518051620003bf91849160209091019062000427565b50916020019190600101906200039f565b50620003de929150620004b2565b5090565b8260068101928215620003d0579160200282015b82811115620003d057825180516200041691849160209091019062000427565b5091602001919060010190620003f6565b82805462000435906200052f565b90600052602060002090601f016020900481019282620004595760008555620004a4565b82601f106200047457805160ff1916838001178555620004a4565b82800160010185558215620004a4579182015b82811115620004a457825182559160200191906001019062000487565b50620003de929150620004d3565b80821115620003de576000620004c98282620004ea565b50600101620004b2565b5b80821115620003de5760008155600101620004d4565b508054620004f8906200052f565b6000825580601f106200050c57506200052c565b601f0160209004906000526020600020908101906200052c9190620004d3565b50565b6002810460018216806200054457607f821691505b602082108114156200055a576200055a62000560565b50919050565b634e487b7160e01b600052602260045260246000fd5b6125dd80620005866000396000f3fe608060405234801561001057600080fd5b506004361061004c5760003560e01c8063194d02d71461005157806319db2b2f1461007b57806329010f431461009b578063a662e0f4146100ae575b600080fd5b61006461005f366004611400565b6100ce565b604051610072929190612249565b60405180910390f35b61008e610089366004611385565b610107565b60405161007291906121dd565b61008e6100a93660046112c9565b610373565b6100c16100bc366004611261565b61048f565b604051610072919061223b565b600080600083116100de57600080fd5b6100e88385612352565b91506100f4828461237c565b6100fe90856123e0565b90509250929050565b60a08201518051602082015160409283015192516329010f4360e01b8152606093849330936329010f4393610142938a9392916004016121ee565b60006040518083038186803b15801561015a57600080fd5b505afa15801561016e573d6000803e3d6000fd5b505050506040513d6000823e601f3d908101601f191682016040526101969190810190611295565b905060006101aa856000015160ff166104d5565b85516101b89060ff166104d5565b6040516020016101c9929190611fb1565b604051602081830303815290604052905060006103436101e8886104d5565b8760e001518460188a6020015160ff166006811061021657634e487b7160e01b600052603260045260246000fd5b016102488a60018151811061023b57634e487b7160e01b600052603260045260246000fd5b60200260200101516104d5565b61026c8b60008151811061023b57634e487b7160e01b600052603260045260246000fd5b8c60c001518d6060015160ff166001146102a057604051806040016040528060028152602001614e6f60f01b8152506102bd565b6040518060400160405280600381526020016259657360e81b8152505b60408f015160ff16156102ee576040518060400160405280600681526020016521b0bb32b93760d11b81525061030d565b6040518060400160405280600581526020016410dc9e5c1d60da1b8152505b6103168d6105f7565b60405160200161032f9a999897969594939291906120c5565b6040516020818303038152906040526105f7565b90508060405160200161035691906121c6565b60408051601f1981840301815291905293505050505b9392505050565b60608060008660200151600461038991906123b1565b60ff16601881106103aa57634e487b7160e01b600052603260045260246000fd5b016040516020016103bb91906120a3565b60405160208183030381529060405290506103da818760e0015161076a565b90506000806103ef886000015160ff16610858565b9150915060006040518060e001604052808381526020018481526020016104198b608001516108a4565b8152602001604051806020016040528060008152508152602001600081526020016000815260200160008152509050836104538a83610951565b6104608a8a8a8e87610ce3565b60405160200161047293929190611f1c565b60408051808303601f190181529190529998505050505050505050565b60008082511161049e57600080fd5b6000806104ad845160206100ce565b909250905080156104cc576104c38260016122f9565b925050506104d0565b5090505b919050565b6060816104fa57506040805180820190915260018152600360fc1b60208201526104d0565b8160005b8115610524578061050e8161247f565b915061051d9050600a83612352565b91506104fe565b6000816001600160401b0381111561054c57634e487b7160e01b600052604160045260246000fd5b6040519080825280601f01601f191660200182016040528015610576576020820181803683370190505b5090505b84156105ef5761058b6001836123e0565b9150610598600a866124a5565b6105a39060306122f9565b60f81b8183815181106105c657634e487b7160e01b600052603260045260246000fd5b60200101906001600160f81b031916908160001a9053506105e8600a86612352565b945061057a565b949350505050565b8051606090806106175750506040805160208101909152600081526104d0565b600060036106268360026122f9565b6106309190612352565b61063b90600461237c565b9050600061064a8260206122f9565b6001600160401b0381111561066f57634e487b7160e01b600052604160045260246000fd5b6040519080825280601f01601f191660200182016040528015610699576020820181803683370190505b5090506000604051806060016040528060408152602001612568604091399050600181016020830160005b86811015610725576003818a01810151603f601282901c8116860151600c83901c8216870151600684901c831688015192909316870151600891821b60ff94851601821b92841692909201901b91160160e01b8352600490920191016106c4565b50600386066001811461073f57600281146107505761075c565b613d3d60f01b60011983015261075c565b603d60f81b6000198301525b505050918152949350505050565b805160609060008060198311610786575060059050600361079b565b506004905060026107986007846122f9565b92505b856107d16002836107ad8760036122f9565b6107b7919061237c565b6107c29060646123e0565b6107cc9190612352565b6104d5565b6107ea836107e08760036122f9565b6107cc919061237c565b6040516020016107fc93929190611fc8565b60408051601f1981840301815291905295508561081d6107cc85600361237c565b610826846104d5565b8760405160200161083a9493929190611f4b565b60405160208183030381529060405295508593505050505b92915050565b600080806108678460066122f9565b610873906101f4612352565b905060006002610883868461237c565b61088f906101f46123e0565b6108999190612352565b935090915050915091565b606060006108b18361048f565b90506000816001600160401b038111156108db57634e487b7160e01b600052604160045260246000fd5b604051908082528060200260200182016040528015610904578160200160208202803683370190505b509050600080805b8481101561094657826020018701519150818360200185015260208361093291906122f9565b92508061093e8161247f565b91505061090c565b509195945050505050565b606060005b835160ff16811015610cd857608083015160c0840152606060005b855160ff16811015610bba5761098f85604001518660800151610e0d565b60011480156109a2575060008560800151115b80156109c957506109c78560400151600187608001516109c291906123e0565b610e0d565b155b15610b3e5760a085018051906109de8261247f565b9052508451865160c0870151610b3792859290916109ff9160ff16906124a5565b610a09919061237c565b8760200151610a1891906122f9565b8751895160c08a0151610a2e9160ff1690612352565b610a38919061237c565b8860200151610a4791906122f9565b885160c08a015160808b0151610a5d91906123e0565b610a67919061237c565b895160208c0151600090610a7c9060046123b1565b610a87906001612327565b60ff1660188110610aa857634e487b7160e01b600052603260045260246000fd5b018054610ab490612452565b80601f0160208091040260200160405190810160405280929190818152602001828054610ae090612452565b8015610b2d5780601f10610b0257610100808354040283529160200191610b2d565b820191906000526020600020905b815481529060010190602001808311610b1057829003601f168201915b5050505050610e88565b9150610b95565b610b5085604001518660800151610e0d565b158015610b61575060008560800151115b8015610b855750610b818560400151600187608001516109c291906123e0565b6001145b15610b9557608085015160c08601525b60808501805190610ba58261247f565b90525080610bb28161247f565b915050610971565b50610bd48460400151600186608001516109c291906123e0565b610c895760a08401805190610be88261247f565b9052508351855160c0860151610c869284929091610c099160ff16906124a5565b610c13919061237c565b8660200151610c2291906122f9565b8651885160c0890151610c389160ff1690612352565b610c42919061237c565b8760200151610c5191906122f9565b875160c089015160808a0151610c6791906123e0565b610c71919061237c565b885160208b0151600090610a7c9060046123b1565b90505b836060015181604051602001610ca0929190611f04565b60408051601f198184030181529181526060860191909152805160208101909152600090525080610cd08161247f565b915050610956565b505060600151919050565b60608060005b8551811015610e0257610dee82856000015187600001518b8581518110610d2057634e487b7160e01b600052603260045260246000fd5b6020026020010151610d3291906124cf565b60ff16610d3f919061237c565b8660200151610d4e91906122f9565b86600001518a8581518110610d7357634e487b7160e01b600052603260045260246000fd5b602002602001015160ff16610d88919061237c565b8760200151610d9791906122f9565b87518a5181906000908d9089908110610dc057634e487b7160e01b600052603260045260246000fd5b60200260200101518c602001516004610dd991906123b1565b610de4906002612327565b610a879190612327565b915080610dfa8161247f565b915050610ce9565b509695505050505050565b6000806000610e1e846101006100ce565b9092509050610e2f8261010061237c565b610e3a9060ff6122f9565b841115610e4657600080fd5b610e518160ff6123e0565b858381518110610e7157634e487b7160e01b600052603260045260246000fd5b6020026020010151901c6001169250505092915050565b606086610e94876104d5565b610e9d876104d5565b610ea6876104d5565b610eaf876104d5565b86604051602001610ec59695949392919061200d565b60408051601f19818403018152919052979650505050505050565b6000610ef3610eee8461228d565b612264565b90508083825260208201905082856020860282011115610f1257600080fd5b60005b85811015610f3e5781610f28888261124b565b8452506020928301929190910190600101610f15565b5050509392505050565b6000610f56610eee8461228d565b90508083825260208201905082856020860282011115610f7557600080fd5b60005b85811015610f3e5781610f8b8882611256565b8452506020928301929190910190600101610f78565b6000610faf610eee846122b0565b905082815260208101848484011115610fc757600080fd5b610fd2848285612416565b509392505050565b6000610fe8610eee846122b0565b90508281526020810184848401111561100057600080fd5b610fd2848285612422565b600082601f83011261101c57600080fd5b81356105ef848260208601610ee0565b600082601f83011261103d57600080fd5b81356105ef848260208601610f48565b600082601f83011261105e57600080fd5b81356105ef848260208601610fa1565b600082601f83011261107f57600080fd5b81516105ef848260208601610fda565b600061010082840312156110a257600080fd5b6110ad610100612264565b905060006110bb8484611256565b82525060206110cc84848301611256565b60208301525060406110e084828501611256565b60408301525060606110f484828501611256565b60608301525060808201356001600160401b0381111561111357600080fd5b61111f8482850161104d565b60808301525060a08201356001600160401b0381111561113e57600080fd5b61114a848285016111ac565b60a08301525060c08201356001600160401b0381111561116957600080fd5b6111758482850161104d565b60c08301525060e08201356001600160401b0381111561119457600080fd5b6111a08482850161104d565b60e08301525092915050565b6000606082840312156111be57600080fd5b6111c86060612264565b905081356001600160401b038111156111e057600080fd5b6111ec8482850161102c565b82525060208201356001600160401b0381111561120857600080fd5b6112148482850161102c565b60208301525060408201356001600160401b0381111561123357600080fd5b61123f8482850161102c565b60408301525092915050565b803561085281612547565b80356108528161255e565b60006020828403121561127357600080fd5b81356001600160401b0381111561128957600080fd5b6105ef8482850161104d565b6000602082840312156112a757600080fd5b81516001600160401b038111156112bd57600080fd5b6105ef8482850161106e565b600080600080608085870312156112df57600080fd5b84356001600160401b038111156112f557600080fd5b6113018782880161108f565b94505060208501356001600160401b0381111561131d57600080fd5b6113298782880161102c565b93505060408501356001600160401b0381111561134557600080fd5b6113518782880161102c565b92505060608501356001600160401b0381111561136d57600080fd5b6113798782880161102c565b91505092959194509250565b60008060006060848603121561139a57600080fd5b60006113a6868661124b565b93505060208401356001600160401b038111156113c257600080fd5b6113ce8682870161108f565b92505060408401356001600160401b038111156113ea57600080fd5b6113f68682870161100b565b9150509250925092565b6000806040838503121561141357600080fd5b600061141f858561124b565b92505060206114308582860161124b565b9150509250929050565b60006114468383611efb565b505060200190565b6000611459826122ec565b61146381856122f0565b935061146e836122da565b8060005b8381101561149c578151611486888261143a565b9750611491836122da565b925050600101611472565b509495945050505050565b60006114b2826122ec565b6114bc81856122f0565b93506114c7836122da565b8060005b8381101561149c5781516114df888261143a565b97506114ea836122da565b9250506001016114cb565b6000611500826122ec565b61150a81856122f0565b935061151a818560208601612422565b6115238161253d565b9093019392505050565b6000611538826122ec565b61154281856104d0565b9350611552818560208601612422565b9290920192915050565b6000815461156981612452565b61157381866104d0565b945060018216801561158c576001811461159d576115cd565b60ff198316865281860193506115cd565b6115a6856122e0565b60005b838110156115c5578154888201526001909101906020016115a9565b838801955050505b50505092915050565b60006115e36028836104d0565b7f227d5d2c22696d616765223a2022646174613a696d6167652f7376672b786d6c8152670ed8985cd94d8d0b60c21b602082015260280192915050565b600061162d600b836104d0565b6a1e17ba32bc3a1f1e17b39f60a91b8152600b0192915050565b6000611654602a836104d0565b7f227d2c207b2274726169745f74797065223a20226c6567656e64617279222c20815269113b30b63ab2911d101160b11b6020820152602a0192915050565b60006116a06009836104d0565b68222066696c6c3d222360b81b815260090192915050565b60006116c5602a836104d0565b7f227d2c207b2274726169745f74797065223a2022737472756374757265222c20815269113b30b63ab2911d101160b11b6020820152602a0192915050565b60006117116010836104d0565b6f11103c9e91169891103bb4b23a341e9160811b815260100192915050565b600061173d602c836104d0565b7f227d2c207b2274726169745f74797065223a2022656e7669726f6e6d656e742281526b1610113b30b63ab2911d101160a11b6020820152602c0192915050565b600061178b600a836104d0565b6911103432b4b3b43a1e9160b11b8152600a0192915050565b60006117b1601c836104d0565b7f3c7465787420783d2235302220793d22352e35222077696474683d22000000008152601c0192915050565b60006117eb61010f836104d0565b7f222c20226465736372697074696f6e223a2022434f534d4f204d41505320697381527f20616e206f6e636861696e206d61702067656e657261746f722074686174207060208201527f726f647563657320616e20696e66696e69746520736574206f662064756e676560408201527f6f6e732e20456e656d6965732c2074726561737572652c2065746320696e746560608201527f6e74696f6e616c6c79206f6d697474656420666f72206f746865727320746f2060808201527f696e746572707265742e204665656c206672656520746f2075736520434f534d60a08201527f4f204d41505320696e20616e792077617920796f752077616e742e222c20226160c08201527f747472696275746573223a205b207b2274726169745f74797065223a20226e6160e08201526e36b2911610113b30b63ab2911d101160891b61010082015261010f0192915050565b60006119486040836104d0565b7f22206865696768743d223922207374726f6b652d77696474683d22302e33222081527f7374726f6b653d22626c61636b222066696c6c3d222346464138303022202f3e602082015260400192915050565b60006119a76004836104d0565b631110179f60e11b815260040192915050565b60006119c76001836104d0565b600f60fb1b815260010192915050565b60006119e46033836104d0565b7f227d2c207b2274726169745f74797065223a2022706f696e7473206f6620696e8152723a32b932b9ba111610113b30b63ab2911d101160691b602082015260330192915050565b6000611a396002836104d0565b61227d60f01b815260020192915050565b6000611a576026836104d0565b7f227d2c207b2274726169745f74797065223a2022646f6f7273222c202276616c8152653ab2911d101160d11b602082015260260192915050565b6000611a9f6024836104d0565b7f3c67207472616e73666f726d3d227363616c65202835203529223e3c72656374815263103c1e9160e11b602082015260240192915050565b6000611ae560c1836104d0565b7f3c73766720786d6c6e733d22687474703a2f2f7777772e77332e6f72672f323081527f30302f73766722207072657365727665417370656374526174696f3d22784d6960208201527f6e594d696e206d656574222076696577426f783d22302030203530302035303060408201527f222073686170652d72656e646572696e673d226372697370456467657322207460608201527f72616e73666f726d2d6f726967696e3d2263656e746572223e3c72656374207760808201527f696474683d223130302522206865696768743d2231303025222066696c6c3d2260a0820152602360f81b60c082015260c10192915050565b6000611be66016836104d0565b757b226e616d65223a2022434f534d4f204d415053202360501b815260160192915050565b6000611c18601d836104d0565b7f646174613a6170706c69636174696f6e2f6a736f6e3b6261736536342c0000008152601d0192915050565b6000611c516005836104d0565b6411103c9e9160d91b815260050192915050565b6000611c726025836104d0565b7f227d2c207b2274726169745f74797065223a202273697a65222c202276616c7581526432911d101160d91b602082015260250192915050565b6000611cb96029836104d0565b7f227d2c207b2274726169745f74797065223a2022616666696e697479222c20228152683b30b63ab2911d101160b91b602082015260290192915050565b6000611d046009836104d0565b681e3932b1ba103c1e9160b91b815260090192915050565b6000611d296006836104d0565b651e17b9bb339f60d11b815260060192915050565b6000611d4b6009836104d0565b6811103bb4b23a341e9160b91b815260090192915050565b6000611d706017836104d0565b7f2220746578742d616e63686f723d226d6964646c65223e000000000000000000815260170192915050565b6000611da96025836104d0565b7f2220666f6e742d66616d696c793d226d6f6e6f73706163652220666f6e742d7381526434bd329e9160d91b602082015260250192915050565b8051600090610100840190611df88582611efb565b506020830151611e0b6020860182611efb565b506040830151611e1e6040860182611efb565b506060830151611e316060860182611efb565b5060808301518482036080860152611e4982826114f5565b91505060a083015184820360a0860152611e638282611ea0565b91505060c083015184820360c0860152611e7d82826114f5565b91505060e083015184820360e0860152611e9782826114f5565b95945050505050565b8051606080845260009190840190611eb8828261144e565b91505060208301518482036020860152611ed2828261144e565b91505060408301518482036040860152611e97828261144e565b611ef58161240d565b82525050565b611ef581612410565b6000611f10828561152d565b91506105ef828461152d565b6000611f28828661152d565b9150611f34828561152d565b9150611f40828461152d565b9150611e9782611d1c565b6000611f57828761152d565b9150611f62826117a4565b9150611f6e828661152d565b9150611f7982611d9c565b9150611f85828561152d565b9150611f9082611d63565b9150611f9c828461152d565b9150611fa782611620565b9695505050505050565b6000611fbd828561152d565b9150611f10826119ba565b6000611fd4828661152d565b9150611fdf82611a92565b9150611feb828561152d565b9150611ff682611704565b9150612002828461152d565b9150611e978261193b565b6000612019828961152d565b915061202482611cf7565b9150612030828861152d565b915061203b82611c44565b9150612047828761152d565b915061205282611d3e565b915061205e828661152d565b91506120698261177e565b9150612075828561152d565b915061208082611693565b915061208c828461152d565b91506120978261199a565b98975050505050505050565b60006120ae82611ad8565b91506120ba828461155c565b915061036c8261199a565b60006120d082611bd9565b91506120dc828d61152d565b91506120e7826117dd565b91506120f3828c61152d565b91506120fe82611c65565b915061210a828b61152d565b915061211582611730565b9150612121828a61155c565b915061212c82611a4a565b9150612138828961152d565b9150612143826119d7565b915061214f828861152d565b915061215a82611cac565b9150612166828761152d565b915061217182611647565b915061217d828661152d565b9150612188826116b8565b9150612194828561152d565b915061219f826115d6565b91506121ab828461152d565b91506121b682611a2c565b9c9b505050505050505050505050565b60006121d182611c0b565b915061036c828461152d565b6020808252810161036c81846114f5565b608080825281016121ff8187611de3565b9050818103602083015261221381866114a7565b9050818103604083015261222781856114a7565b90508181036060830152611fa781846114a7565b602081016108528284611eec565b604081016122578285611eec565b61036c6020830184611eec565b6040518181016001600160401b038111828210171561228557612285612527565b604052919050565b60006001600160401b038211156122a6576122a6612527565b5060209081020190565b60006001600160401b038211156122c9576122c9612527565b506020601f91909101601f19160190565b60200190565b60009081526020902090565b5190565b90815260200190565b60006123048261240d565b915061230f8361240d565b92508219821115612322576123226124e5565b500190565b600061233282612410565b915061233d83612410565b92508260ff03821115612322576123226124e5565b600061235d8261240d565b91506123688361240d565b925082612377576123776124fb565b500490565b60006123878261240d565b91506123928361240d565b92508160001904831182151516156123ac576123ac6124e5565b500290565b60006123bc82612410565b91506123c783612410565b92508160ff04831182151516156123ac576123ac6124e5565b60006123eb8261240d565b91506123f68361240d565b925082821015612408576124086124e5565b500390565b90565b60ff1690565b82818337506000910152565b60005b8381101561243d578181015183820152602001612425565b8381111561244c576000848401525b50505050565b60028104600182168061246657607f821691505b6020821081141561247957612479612511565b50919050565b600061248a8261240d565b915060001982141561249e5761249e6124e5565b5060010190565b60006124b08261240d565b91506124bb8361240d565b9250826124ca576124ca6124fb565b500690565b60006124da82612410565b91506124bb83612410565b634e487b7160e01b600052601160045260246000fd5b634e487b7160e01b600052601260045260246000fd5b634e487b7160e01b600052602260045260246000fd5b634e487b7160e01b600052604160045260246000fd5b601f01601f191690565b6125508161240d565b811461255b57600080fd5b50565b6125508161241056fe4142434445464748494a4b4c4d4e4f505152535455565758595a6162636465666768696a6b6c6d6e6f707172737475767778797a303132333435363738392b2fa26469706673582212202bee6f25f2c10b11e85253923051c98fd3049ce7d3a19bc18f54e02b5e1cfc9a64736f6c63430008000033",
  "linkReferences": {},
  "deployedLinkReferences": {}
}